{
  "contractName": "SolnSquareVerifier",
  "abi": [
    {
      "constant": true,
      "inputs": [
        {
          "name": "interfaceId",
          "type": "bytes4"
        }
      ],
      "name": "supportsInterface",
      "outputs": [
        {
          "name": "",
          "type": "bool"
        }
      ],
      "payable": false,
      "stateMutability": "view",
      "type": "function"
    },
    {
      "constant": true,
      "inputs": [],
      "name": "name",
      "outputs": [
        {
          "name": "",
          "type": "string"
        }
      ],
      "payable": false,
      "stateMutability": "view",
      "type": "function"
    },
    {
      "constant": true,
      "inputs": [
        {
          "name": "tokenId",
          "type": "uint256"
        }
      ],
      "name": "getApproved",
      "outputs": [
        {
          "name": "",
          "type": "address"
        }
      ],
      "payable": false,
      "stateMutability": "view",
      "type": "function"
    },
    {
      "constant": false,
      "inputs": [
        {
          "name": "to",
          "type": "address"
        },
        {
          "name": "tokenId",
          "type": "uint256"
        }
      ],
      "name": "approve",
      "outputs": [],
      "payable": false,
      "stateMutability": "nonpayable",
      "type": "function"
    },
    {
      "constant": true,
      "inputs": [],
      "name": "totalSupply",
      "outputs": [
        {
          "name": "",
          "type": "uint256"
        }
      ],
      "payable": false,
      "stateMutability": "view",
      "type": "function"
    },
    {
      "constant": false,
      "inputs": [
        {
          "name": "from",
          "type": "address"
        },
        {
          "name": "to",
          "type": "address"
        },
        {
          "name": "tokenId",
          "type": "uint256"
        }
      ],
      "name": "transferFrom",
      "outputs": [],
      "payable": false,
      "stateMutability": "nonpayable",
      "type": "function"
    },
    {
      "constant": false,
      "inputs": [
        {
          "name": "_myid",
          "type": "bytes32"
        },
        {
          "name": "_result",
          "type": "string"
        }
      ],
      "name": "__callback",
      "outputs": [],
      "payable": false,
      "stateMutability": "nonpayable",
      "type": "function"
    },
    {
      "constant": true,
      "inputs": [
        {
          "name": "owner",
          "type": "address"
        },
        {
          "name": "index",
          "type": "uint256"
        }
      ],
      "name": "tokenOfOwnerByIndex",
      "outputs": [
        {
          "name": "",
          "type": "uint256"
        }
      ],
      "payable": false,
      "stateMutability": "view",
      "type": "function"
    },
    {
      "constant": false,
      "inputs": [
        {
          "name": "_myid",
          "type": "bytes32"
        },
        {
          "name": "_result",
          "type": "string"
        },
        {
          "name": "_proof",
          "type": "bytes"
        }
      ],
      "name": "__callback",
      "outputs": [],
      "payable": false,
      "stateMutability": "nonpayable",
      "type": "function"
    },
    {
      "constant": false,
      "inputs": [],
      "name": "unpause",
      "outputs": [],
      "payable": false,
      "stateMutability": "nonpayable",
      "type": "function"
    },
    {
      "constant": false,
      "inputs": [
        {
          "name": "to",
          "type": "address"
        },
        {
          "name": "tokenId",
          "type": "uint256"
        }
      ],
      "name": "mint",
      "outputs": [
        {
          "name": "",
          "type": "bool"
        }
      ],
      "payable": false,
      "stateMutability": "nonpayable",
      "type": "function"
    },
    {
      "constant": false,
      "inputs": [
        {
          "name": "from",
          "type": "address"
        },
        {
          "name": "to",
          "type": "address"
        },
        {
          "name": "tokenId",
          "type": "uint256"
        }
      ],
      "name": "safeTransferFrom",
      "outputs": [],
      "payable": false,
      "stateMutability": "nonpayable",
      "type": "function"
    },
    {
      "constant": true,
      "inputs": [
        {
          "name": "account",
          "type": "address"
        }
      ],
      "name": "isPauser",
      "outputs": [
        {
          "name": "",
          "type": "bool"
        }
      ],
      "payable": false,
      "stateMutability": "view",
      "type": "function"
    },
    {
      "constant": true,
      "inputs": [
        {
          "name": "index",
          "type": "uint256"
        }
      ],
      "name": "tokenByIndex",
      "outputs": [
        {
          "name": "",
          "type": "uint256"
        }
      ],
      "payable": false,
      "stateMutability": "view",
      "type": "function"
    },
    {
      "constant": true,
      "inputs": [],
      "name": "paused",
      "outputs": [
        {
          "name": "",
          "type": "bool"
        }
      ],
      "payable": false,
      "stateMutability": "view",
      "type": "function"
    },
    {
      "constant": false,
      "inputs": [
        {
          "name": "a",
          "type": "uint256[2]"
        },
        {
          "name": "b",
          "type": "uint256[2][2]"
        },
        {
          "name": "c",
          "type": "uint256[2]"
        },
        {
          "name": "input",
          "type": "uint256[2]"
        }
      ],
      "name": "verifyTx",
      "outputs": [
        {
          "name": "r",
          "type": "bool"
        }
      ],
      "payable": false,
      "stateMutability": "nonpayable",
      "type": "function"
    },
    {
      "constant": true,
      "inputs": [
        {
          "name": "tokenId",
          "type": "uint256"
        }
      ],
      "name": "ownerOf",
      "outputs": [
        {
          "name": "",
          "type": "address"
        }
      ],
      "payable": false,
      "stateMutability": "view",
      "type": "function"
    },
    {
      "constant": false,
      "inputs": [],
      "name": "renouncePauser",
      "outputs": [],
      "payable": false,
      "stateMutability": "nonpayable",
      "type": "function"
    },
    {
      "constant": true,
      "inputs": [
        {
          "name": "owner",
          "type": "address"
        }
      ],
      "name": "balanceOf",
      "outputs": [
        {
          "name": "",
          "type": "uint256"
        }
      ],
      "payable": false,
      "stateMutability": "view",
      "type": "function"
    },
    {
      "constant": false,
      "inputs": [],
      "name": "renounceOwnership",
      "outputs": [],
      "payable": false,
      "stateMutability": "nonpayable",
      "type": "function"
    },
    {
      "constant": false,
      "inputs": [
        {
          "name": "account",
          "type": "address"
        }
      ],
      "name": "addPauser",
      "outputs": [],
      "payable": false,
      "stateMutability": "nonpayable",
      "type": "function"
    },
    {
      "constant": false,
      "inputs": [],
      "name": "pause",
      "outputs": [],
      "payable": false,
      "stateMutability": "nonpayable",
      "type": "function"
    },
    {
      "constant": true,
      "inputs": [],
      "name": "owner",
      "outputs": [
        {
          "name": "",
          "type": "address"
        }
      ],
      "payable": false,
      "stateMutability": "view",
      "type": "function"
    },
    {
      "constant": true,
      "inputs": [],
      "name": "isOwner",
      "outputs": [
        {
          "name": "",
          "type": "bool"
        }
      ],
      "payable": false,
      "stateMutability": "view",
      "type": "function"
    },
    {
      "constant": true,
      "inputs": [],
      "name": "symbol",
      "outputs": [
        {
          "name": "",
          "type": "string"
        }
      ],
      "payable": false,
      "stateMutability": "view",
      "type": "function"
    },
    {
      "constant": false,
      "inputs": [
        {
          "name": "account",
          "type": "address"
        }
      ],
      "name": "addMinter",
      "outputs": [],
      "payable": false,
      "stateMutability": "nonpayable",
      "type": "function"
    },
    {
      "constant": false,
      "inputs": [],
      "name": "renounceMinter",
      "outputs": [],
      "payable": false,
      "stateMutability": "nonpayable",
      "type": "function"
    },
    {
      "constant": false,
      "inputs": [
        {
          "name": "to",
          "type": "address"
        },
        {
          "name": "approved",
          "type": "bool"
        }
      ],
      "name": "setApprovalForAll",
      "outputs": [],
      "payable": false,
      "stateMutability": "nonpayable",
      "type": "function"
    },
    {
      "constant": true,
      "inputs": [
        {
          "name": "account",
          "type": "address"
        }
      ],
      "name": "isMinter",
      "outputs": [
        {
          "name": "",
          "type": "bool"
        }
      ],
      "payable": false,
      "stateMutability": "view",
      "type": "function"
    },
    {
      "constant": false,
      "inputs": [],
      "name": "awesomeTitleTest",
      "outputs": [
        {
          "name": "",
          "type": "string"
        }
      ],
      "payable": false,
      "stateMutability": "nonpayable",
      "type": "function"
    },
    {
      "constant": false,
      "inputs": [
        {
          "name": "from",
          "type": "address"
        },
        {
          "name": "to",
          "type": "address"
        },
        {
          "name": "tokenId",
          "type": "uint256"
        },
        {
          "name": "_data",
          "type": "bytes"
        }
      ],
      "name": "safeTransferFrom",
      "outputs": [],
      "payable": false,
      "stateMutability": "nonpayable",
      "type": "function"
    },
    {
      "constant": true,
      "inputs": [
        {
          "name": "tokenId",
          "type": "uint256"
        }
      ],
      "name": "tokenURI",
      "outputs": [
        {
          "name": "",
          "type": "string"
        }
      ],
      "payable": false,
      "stateMutability": "view",
      "type": "function"
    },
    {
      "constant": false,
      "inputs": [
        {
          "name": "to",
          "type": "address"
        },
        {
          "name": "tokenId",
          "type": "uint256"
        },
        {
          "name": "tokenURI",
          "type": "string"
        }
      ],
      "name": "mint",
      "outputs": [
        {
          "name": "",
          "type": "bool"
        }
      ],
      "payable": false,
      "stateMutability": "nonpayable",
      "type": "function"
    },
    {
      "constant": true,
      "inputs": [
        {
          "name": "owner",
          "type": "address"
        },
        {
          "name": "operator",
          "type": "address"
        }
      ],
      "name": "isApprovedForAll",
      "outputs": [
        {
          "name": "",
          "type": "bool"
        }
      ],
      "payable": false,
      "stateMutability": "view",
      "type": "function"
    },
    {
      "constant": false,
      "inputs": [
        {
          "name": "newOwner",
          "type": "address"
        }
      ],
      "name": "transferOwnership",
      "outputs": [],
      "payable": false,
      "stateMutability": "nonpayable",
      "type": "function"
    },
    {
      "inputs": [],
      "payable": false,
      "stateMutability": "nonpayable",
      "type": "constructor"
    },
    {
      "anonymous": false,
      "inputs": [
        {
          "indexed": false,
          "name": "submittedBy",
          "type": "address"
        }
      ],
      "name": "SolutionSubmitted",
      "type": "event"
    },
    {
      "anonymous": false,
      "inputs": [
        {
          "indexed": false,
          "name": "theHash",
          "type": "bytes32"
        }
      ],
      "name": "HashCreated",
      "type": "event"
    },
    {
      "anonymous": false,
      "inputs": [
        {
          "indexed": false,
          "name": "theString",
          "type": "string"
        }
      ],
      "name": "AddSolutionCalled",
      "type": "event"
    },
    {
      "anonymous": false,
      "inputs": [
        {
          "indexed": false,
          "name": "aString",
          "type": "string"
        }
      ],
      "name": "TestingYo",
      "type": "event"
    },
    {
      "anonymous": false,
      "inputs": [
        {
          "indexed": false,
          "name": "s",
          "type": "string"
        }
      ],
      "name": "Verified",
      "type": "event"
    },
    {
      "anonymous": false,
      "inputs": [
        {
          "indexed": false,
          "name": "aString",
          "type": "string"
        }
      ],
      "name": "AwesomeTitleTest",
      "type": "event"
    },
    {
      "anonymous": false,
      "inputs": [
        {
          "indexed": false,
          "name": "aString",
          "type": "string"
        }
      ],
      "name": "AwesomeTitleTest2",
      "type": "event"
    },
    {
      "anonymous": false,
      "inputs": [
        {
          "indexed": false,
          "name": "isSuccessful",
          "type": "bool"
        }
      ],
      "name": "AwesomeTitleMint",
      "type": "event"
    },
    {
      "anonymous": false,
      "inputs": [
        {
          "indexed": true,
          "name": "previousOwner",
          "type": "address"
        },
        {
          "indexed": true,
          "name": "newOwner",
          "type": "address"
        }
      ],
      "name": "OwnershipTransferred",
      "type": "event"
    },
    {
      "anonymous": false,
      "inputs": [
        {
          "indexed": true,
          "name": "account",
          "type": "address"
        }
      ],
      "name": "MinterAdded",
      "type": "event"
    },
    {
      "anonymous": false,
      "inputs": [
        {
          "indexed": true,
          "name": "account",
          "type": "address"
        }
      ],
      "name": "MinterRemoved",
      "type": "event"
    },
    {
      "anonymous": false,
      "inputs": [
        {
          "indexed": true,
          "name": "from",
          "type": "address"
        },
        {
          "indexed": true,
          "name": "to",
          "type": "address"
        },
        {
          "indexed": true,
          "name": "tokenId",
          "type": "uint256"
        }
      ],
      "name": "Transfer",
      "type": "event"
    },
    {
      "anonymous": false,
      "inputs": [
        {
          "indexed": true,
          "name": "owner",
          "type": "address"
        },
        {
          "indexed": true,
          "name": "approved",
          "type": "address"
        },
        {
          "indexed": true,
          "name": "tokenId",
          "type": "uint256"
        }
      ],
      "name": "Approval",
      "type": "event"
    },
    {
      "anonymous": false,
      "inputs": [
        {
          "indexed": true,
          "name": "owner",
          "type": "address"
        },
        {
          "indexed": true,
          "name": "operator",
          "type": "address"
        },
        {
          "indexed": false,
          "name": "approved",
          "type": "bool"
        }
      ],
      "name": "ApprovalForAll",
      "type": "event"
    },
    {
      "anonymous": false,
      "inputs": [
        {
          "indexed": false,
          "name": "account",
          "type": "address"
        }
      ],
      "name": "Paused",
      "type": "event"
    },
    {
      "anonymous": false,
      "inputs": [
        {
          "indexed": false,
          "name": "account",
          "type": "address"
        }
      ],
      "name": "Unpaused",
      "type": "event"
    },
    {
      "anonymous": false,
      "inputs": [
        {
          "indexed": true,
          "name": "account",
          "type": "address"
        }
      ],
      "name": "PauserAdded",
      "type": "event"
    },
    {
      "anonymous": false,
      "inputs": [
        {
          "indexed": true,
          "name": "account",
          "type": "address"
        }
      ],
      "name": "PauserRemoved",
      "type": "event"
    },
    {
      "constant": false,
      "inputs": [],
      "name": "testFunction",
      "outputs": [
        {
          "name": "",
          "type": "string"
        }
      ],
      "payable": false,
      "stateMutability": "nonpayable",
      "type": "function"
    },
    {
      "constant": false,
      "inputs": [
        {
          "name": "pa",
          "type": "uint256[2]"
        },
        {
          "name": "pb",
          "type": "uint256[2][2]"
        },
        {
          "name": "pc",
          "type": "uint256[2]"
        },
        {
          "name": "i",
          "type": "uint256[2]"
        },
        {
          "name": "to",
          "type": "address"
        }
      ],
      "name": "addSolution",
      "outputs": [
        {
          "name": "",
          "type": "bool"
        }
      ],
      "payable": false,
      "stateMutability": "nonpayable",
      "type": "function"
    }
  ],
  "bytecode": "0x60806040523480156200001157600080fd5b506040518060400160405280600c81526020017f417765736f6d655469746c6500000000000000000000000000000000000000008152506040518060400160405280600481526020017f444545440000000000000000000000000000000000000000000000000000000081525081816200009133620002af60201b60201c565b6000600160006101000a81548160ff021916908315150217905550620000c46301ffc9a760e01b6200031060201b60201c565b620000dc6380ac58cd60e01b6200031060201b60201c565b620000f463780e9d6360e01b6200031060201b60201c565b81600b90805190602001906200010c9291906200063f565b5080600c9080519060200190620001259291906200063f565b506200013e635b5e139f60e01b6200031060201b60201c565b5050505062000153336200041a60201b60201c565b33600f60006101000a81548173ffffffffffffffffffffffffffffffffffffffff021916908373ffffffffffffffffffffffffffffffffffffffff160217905550600f60009054906101000a900473ffffffffffffffffffffffffffffffffffffffff1673ffffffffffffffffffffffffffffffffffffffff16600073ffffffffffffffffffffffffffffffffffffffff167f8be0079c531659141344cd1fd0a4f28419497f9722a3daafe3b4186f6b6457e060405160405180910390a37f4098b352452230ea930d67f8facfd384517785aa9126fcf14ba93b94b8180fdb60405180806020018281038252602481526020018062005dff6024913960400191505060405180910390a17f01a87e7a3d231b634c1b6d4af78b689c56e577b096c765c761a9d79d482cd42760405180806020018281038252602d81526020018062005dd2602d913960400191505060405180910390a1620006ee565b620002ca8160006200047b60201b620047461790919060201c565b8073ffffffffffffffffffffffffffffffffffffffff167f6719d08c1888103bea251a4ed56406bd0c3e69723c8a1686e017e7bbe159b6f860405160405180910390a250565b63ffffffff60e01b817bffffffffffffffffffffffffffffffffffffffffffffffffffffffff19161415620003ad576040517f08c379a000000000000000000000000000000000000000000000000000000000815260040180806020018281038252601c8152602001807f4552433136353a20696e76616c696420696e746572666163652069640000000081525060200191505060405180910390fd5b600160026000837bffffffffffffffffffffffffffffffffffffffffffffffffffffffff19167bffffffffffffffffffffffffffffffffffffffffffffffffffffffff1916815260200190815260200160002060006101000a81548160ff02191690831515021790555050565b6200043581600e6200047b60201b620047461790919060201c565b8073ffffffffffffffffffffffffffffffffffffffff167f6ae172837ea30b801fbfcdd4108aa1d5bf8ff775444fd70256b44e6bf3dfc3f660405160405180910390a250565b6200048d82826200055f60201b60201c565b1562000501576040517f08c379a000000000000000000000000000000000000000000000000000000000815260040180806020018281038252601f8152602001807f526f6c65733a206163636f756e7420616c72656164792068617320726f6c650081525060200191505060405180910390fd5b60018260000160008373ffffffffffffffffffffffffffffffffffffffff1673ffffffffffffffffffffffffffffffffffffffff16815260200190815260200160002060006101000a81548160ff0219169083151502179055505050565b60008073ffffffffffffffffffffffffffffffffffffffff168273ffffffffffffffffffffffffffffffffffffffff161415620005e8576040517f08c379a000000000000000000000000000000000000000000000000000000000815260040180806020018281038252602281526020018062005db06022913960400191505060405180910390fd5b8260000160008373ffffffffffffffffffffffffffffffffffffffff1673ffffffffffffffffffffffffffffffffffffffff16815260200190815260200160002060009054906101000a900460ff16905092915050565b828054600181600116156101000203166002900490600052602060002090601f016020900481019282601f106200068257805160ff1916838001178555620006b3565b82800160010185558215620006b3579182015b82811115620006b257825182559160200191906001019062000695565b5b509050620006c29190620006c6565b5090565b620006eb91905b80821115620006e7576000816000905550600101620006cd565b5090565b90565b6156b280620006fe6000396000f3fe608060405234801561001057600080fd5b50600436106102275760003560e01c806370a082311161013057806398650275116100b8578063c87b56dd1161007c578063c87b56dd14610f14578063d3fc986414610fbb578063e16b4a9b146110b8578063e985e9c51461113b578063f2fde38b146111b757610227565b80639865027514610cd6578063a22cb46514610ce0578063aa271e1a14610d30578063b3fe201114610d8c578063b88d4fde14610e0f57610227565b80638a823fbe116100ff5780638a823fbe14610b1e5780638da5cb5b14610ba35780638f32d59b14610bed57806395d89b4114610c0f578063983b2d5614610c9257610227565b806370a0823114610a6e578063715018a614610ac657806382dc1ec414610ad05780638456cb5914610b1457610227565b80633f4ba83a116101b35780634f6ccce7116101825780634f6ccce7146108195780635c975abb1461085b578063621e9ec01461087d5780636352211e146109f65780636ef8d66d14610a6457610227565b80633f4ba83a146106df57806340c10f19146106e957806342842e0e1461074f57806346fbf68e146107bd57610227565b806318160ddd116101fa57806318160ddd146103d057806323b872dd146103ee57806327dc297e1461045c5780632f745c591461052157806338bbfa501461058357610227565b806301ffc9a71461022c57806306fdde0314610291578063081812fc14610314578063095ea7b314610382575b600080fd5b6102776004803603602081101561024257600080fd5b8101908080357bffffffffffffffffffffffffffffffffffffffffffffffffffffffff191690602001909291905050506111fb565b604051808215151515815260200191505060405180910390f35b610299611263565b6040518080602001828103825283818151815260200191508051906020019080838360005b838110156102d95780820151818401526020810190506102be565b50505050905090810190601f1680156103065780820380516001836020036101000a031916815260200191505b509250505060405180910390f35b6103406004803603602081101561032a57600080fd5b8101908080359060200190929190505050611305565b604051808273ffffffffffffffffffffffffffffffffffffffff1673ffffffffffffffffffffffffffffffffffffffff16815260200191505060405180910390f35b6103ce6004803603604081101561039857600080fd5b81019080803573ffffffffffffffffffffffffffffffffffffffff169060200190929190803590602001909291905050506113a0565b005b6103d8611579565b6040518082815260200191505060405180910390f35b61045a6004803603606081101561040457600080fd5b81019080803573ffffffffffffffffffffffffffffffffffffffff169060200190929190803573ffffffffffffffffffffffffffffffffffffffff16906020019092919080359060200190929190505050611586565b005b61051f6004803603604081101561047257600080fd5b81019080803590602001909291908035906020019064010000000081111561049957600080fd5b8201836020820111156104ab57600080fd5b803590602001918460018302840111640100000000831117156104cd57600080fd5b91908080601f016020809104026020016040519081016040528093929190818152602001838380828437600081840152601f19601f8201169050808301925050505050505091929192905050506115f5565b005b61056d6004803603604081101561053757600080fd5b81019080803573ffffffffffffffffffffffffffffffffffffffff16906020019092919080359060200190929190505050611638565b6040518082815260200191505060405180910390f35b6106dd6004803603606081101561059957600080fd5b8101908080359060200190929190803590602001906401000000008111156105c057600080fd5b8201836020820111156105d257600080fd5b803590602001918460018302840111640100000000831117156105f457600080fd5b91908080601f016020809104026020016040519081016040528093929190818152602001838380828437600081840152601f19601f8201169050808301925050505050505091929192908035906020019064010000000081111561065757600080fd5b82018360208201111561066957600080fd5b8035906020019184600183028401116401000000008311171561068b57600080fd5b91908080601f016020809104026020016040519081016040528093929190818152602001838380828437600081840152601f19601f8201169050808301925050505050505091929192905050506116f7565b005b6106e76116fc565b005b610735600480360360408110156106ff57600080fd5b81019080803573ffffffffffffffffffffffffffffffffffffffff1690602001909291908035906020019092919050505061185c565b604051808215151515815260200191505060405180910390f35b6107bb6004803603606081101561076557600080fd5b81019080803573ffffffffffffffffffffffffffffffffffffffff169060200190929190803573ffffffffffffffffffffffffffffffffffffffff169060200190929190803590602001909291905050506118d0565b005b6107ff600480360360208110156107d357600080fd5b81019080803573ffffffffffffffffffffffffffffffffffffffff1690602001909291905050506118f0565b604051808215151515815260200191505060405180910390f35b6108456004803603602081101561082f57600080fd5b810190808035906020019092919050505061190d565b6040518082815260200191505060405180910390f35b61086361198d565b604051808215151515815260200191505060405180910390f35b6109dc600480360361014081101561089457600080fd5b8101908080604001906002806020026040519081016040528092919082600260200280828437600081840152601f19601f82011690508083019250505050505091929192908060800190600280602002604051908101604052809291906000905b82821015610949578382604002016002806020026040519081016040528092919082600260200280828437600081840152601f19601f820116905080830192505050505050815260200190600101906108f5565b50505050919291929080604001906002806020026040519081016040528092919082600260200280828437600081840152601f19601f820116905080830192505050505050919291929080604001906002806020026040519081016040528092919082600260200280828437600081840152601f19601f82011690508083019250505050505091929192905050506119a4565b604051808215151515815260200191505060405180910390f35b610a2260048036036020811015610a0c57600080fd5b8101908080359060200190929190505050611beb565b604051808273ffffffffffffffffffffffffffffffffffffffff1673ffffffffffffffffffffffffffffffffffffffff16815260200191505060405180910390f35b610a6c611cb3565b005b610ab060048036036020811015610a8457600080fd5b81019080803573ffffffffffffffffffffffffffffffffffffffff169060200190929190505050611cbe565b6040518082815260200191505060405180910390f35b610ace611d93565b005b610b1260048036036020811015610ae657600080fd5b81019080803573ffffffffffffffffffffffffffffffffffffffff169060200190929190505050611ece565b005b610b1c611f38565b005b610b896004803603610160811015610b3557600080fd5b8101908080604001909192919290806080019091929192908060400190919291929080604001909192919290803573ffffffffffffffffffffffffffffffffffffffff169060200190929190505050612098565b604051808215151515815260200191505060405180910390f35b610bab612538565b604051808273ffffffffffffffffffffffffffffffffffffffff1673ffffffffffffffffffffffffffffffffffffffff16815260200191505060405180910390f35b610bf5612562565b604051808215151515815260200191505060405180910390f35b610c176125ba565b6040518080602001828103825283818151815260200191508051906020019080838360005b83811015610c57578082015181840152602081019050610c3c565b50505050905090810190601f168015610c845780820380516001836020036101000a031916815260200191505b509250505060405180910390f35b610cd460048036036020811015610ca857600080fd5b81019080803573ffffffffffffffffffffffffffffffffffffffff16906020019092919050505061265c565b005b610cde6126c6565b005b610d2e60048036036040811015610cf657600080fd5b81019080803573ffffffffffffffffffffffffffffffffffffffff1690602001909291908035151590602001909291905050506126d1565b005b610d7260048036036020811015610d4657600080fd5b81019080803573ffffffffffffffffffffffffffffffffffffffff169060200190929190505050612874565b604051808215151515815260200191505060405180910390f35b610d94612891565b6040518080602001828103825283818151815260200191508051906020019080838360005b83811015610dd4578082015181840152602081019050610db9565b50505050905090810190601f168015610e015780820380516001836020036101000a031916815260200191505b509250505060405180910390f35b610f1260048036036080811015610e2557600080fd5b81019080803573ffffffffffffffffffffffffffffffffffffffff169060200190929190803573ffffffffffffffffffffffffffffffffffffffff1690602001909291908035906020019092919080359060200190640100000000811115610e8c57600080fd5b820183602082011115610e9e57600080fd5b80359060200191846001830284011164010000000083111715610ec057600080fd5b91908080601f016020809104026020016040519081016040528093929190818152602001838380828437600081840152601f19601f820116905080830192505050505050509192919290505050612919565b005b610f4060048036036020811015610f2a57600080fd5b810190808035906020019092919050505061298b565b6040518080602001828103825283818151815260200191508051906020019080838360005b83811015610f80578082015181840152602081019050610f65565b50505050905090810190601f168015610fad5780820380516001836020036101000a031916815260200191505b509250505060405180910390f35b61109e60048036036060811015610fd157600080fd5b81019080803573ffffffffffffffffffffffffffffffffffffffff169060200190929190803590602001909291908035906020019064010000000081111561101857600080fd5b82018360208201111561102a57600080fd5b8035906020019184600183028401116401000000008311171561104c57600080fd5b91908080601f016020809104026020016040519081016040528093929190818152602001838380828437600081840152601f19601f820116905080830192505050505050509192919290505050612a9e565b604051808215151515815260200191505060405180910390f35b6110c0612b7d565b6040518080602001828103825283818151815260200191508051906020019080838360005b838110156111005780820151818401526020810190506110e5565b50505050905090810190601f16801561112d5780820380516001836020036101000a031916815260200191505b509250505060405180910390f35b61119d6004803603604081101561115157600080fd5b81019080803573ffffffffffffffffffffffffffffffffffffffff169060200190929190803573ffffffffffffffffffffffffffffffffffffffff169060200190929190505050612bfa565b604051808215151515815260200191505060405180910390f35b6111f9600480360360208110156111cd57600080fd5b81019080803573ffffffffffffffffffffffffffffffffffffffff169060200190929190505050612c8e565b005b600060026000837bffffffffffffffffffffffffffffffffffffffffffffffffffffffff19167bffffffffffffffffffffffffffffffffffffffffffffffffffffffff1916815260200190815260200160002060009054906101000a900460ff169050919050565b6060600b8054600181600116156101000203166002900480601f0160208091040260200160405190810160405280929190818152602001828054600181600116156101000203166002900480156112fb5780601f106112d0576101008083540402835291602001916112fb565b820191906000526020600020905b8154815290600101906020018083116112de57829003601f168201915b5050505050905090565b600061131082612d14565b611365576040517f08c379a000000000000000000000000000000000000000000000000000000000815260040180806020018281038252602c8152602001806154d3602c913960400191505060405180910390fd5b6004600083815260200190815260200160002060009054906101000a900473ffffffffffffffffffffffffffffffffffffffff169050919050565b60006113ab82611beb565b90508073ffffffffffffffffffffffffffffffffffffffff168373ffffffffffffffffffffffffffffffffffffffff161415611432576040517f08c379a00000000000000000000000000000000000000000000000000000000081526004018080602001828103825260218152602001806155ca6021913960400191505060405180910390fd5b8073ffffffffffffffffffffffffffffffffffffffff163373ffffffffffffffffffffffffffffffffffffffff16148061147257506114718133612bfa565b5b6114c7576040517f08c379a00000000000000000000000000000000000000000000000000000000081526004018080602001828103825260388152602001806153d56038913960400191505060405180910390fd5b826004600084815260200190815260200160002060006101000a81548173ffffffffffffffffffffffffffffffffffffffff021916908373ffffffffffffffffffffffffffffffffffffffff160217905550818373ffffffffffffffffffffffffffffffffffffffff168273ffffffffffffffffffffffffffffffffffffffff167f8c5be1e5ebec7d5bd14f71427d1e84f3dd0314c0f7b2291e5b200ac8c7c3b92560405160405180910390a4505050565b6000600980549050905090565b6115903382612d86565b6115e5576040517f08c379a00000000000000000000000000000000000000000000000000000000081526004018080602001828103825260318152602001806155eb6031913960400191505060405180910390fd5b6115f0838383612e7a565b505050565b611634828260006040519080825280601f01601f19166020018201604052801561162e5781602001600182028038833980820191505090505b506116f7565b5050565b600061164383611cbe565b821061169a576040517f08c379a000000000000000000000000000000000000000000000000000000000815260040180806020018281038252602b81526020018061529f602b913960400191505060405180910390fd5b600760008473ffffffffffffffffffffffffffffffffffffffff1673ffffffffffffffffffffffffffffffffffffffff16815260200190815260200160002082815481106116e457fe5b9060005260206000200154905092915050565b505050565b611705336118f0565b61175a576040517f08c379a00000000000000000000000000000000000000000000000000000000081526004018080602001828103825260308152602001806152fc6030913960400191505060405180910390fd5b600160009054906101000a900460ff166117dc576040517f08c379a00000000000000000000000000000000000000000000000000000000081526004018080602001828103825260148152602001807f5061757361626c653a206e6f742070617573656400000000000000000000000081525060200191505060405180910390fd5b6000600160006101000a81548160ff0219169083151502179055507f5db9ee0a495bf2e6ff9c91a7834c1ba4fdd244a5e8aa4e537bd38aeae4b073aa33604051808273ffffffffffffffffffffffffffffffffffffffff1673ffffffffffffffffffffffffffffffffffffffff16815260200191505060405180910390a1565b600061186733612874565b6118bc576040517f08c379a00000000000000000000000000000000000000000000000000000000081526004018080602001828103825260308152602001806154606030913960400191505060405180910390fd5b6118c68383612e9e565b6001905092915050565b6118eb83838360405180602001604052806000815250612919565b505050565b6000611906826000612ebf90919063ffffffff16565b9050919050565b6000611917611579565b821061196e576040517f08c379a000000000000000000000000000000000000000000000000000000000815260040180806020018281038252602c81526020018061565b602c913960400191505060405180910390fd5b6009828154811061197b57fe5b90600052602060002001549050919050565b6000600160009054906101000a900460ff16905090565b60006119ae61503c565b6040518060400160405280876000600281106119c657fe5b60200201518152602001876001600281106119dd57fe5b602002015181525081600001819052506040518060400160405280604051806040016040528088600060028110611a1057fe5b6020020151600060028110611a2157fe5b6020020151815260200188600060028110611a3857fe5b6020020151600160028110611a4957fe5b60200201518152508152602001604051806040016040528088600160028110611a6e57fe5b6020020151600060028110611a7f57fe5b6020020151815260200188600160028110611a9657fe5b6020020151600160028110611aa757fe5b60200201518152508152508160200181905250604051806040016040528085600060028110611ad257fe5b6020020151815260200185600160028110611ae957fe5b6020020151815250816040018190525060606002604051908082528060200260200182016040528015611b2b5781602001602082028038833980820191505090505b50905060008090505b6002811015611b7357848160028110611b4957fe5b6020020151828281518110611b5a57fe5b6020026020010181815250508080600101915050611b34565b506000611b808284612f9d565b1415611bdc577f3f3cfdb26fb5f9f1786ab4f1a1f9cd4c0b5e726cbdfc26e495261731aad44e396040518080602001828103825260228152602001806154b16022913960400191505060405180910390a1600192505050611be3565b6000925050505b949350505050565b6000806003600084815260200190815260200160002060009054906101000a900473ffffffffffffffffffffffffffffffffffffffff169050600073ffffffffffffffffffffffffffffffffffffffff168173ffffffffffffffffffffffffffffffffffffffff161415611caa576040517f08c379a00000000000000000000000000000000000000000000000000000000081526004018080602001828103825260298152602001806154376029913960400191505060405180910390fd5b80915050919050565b611cbc3361310f565b565b60008073ffffffffffffffffffffffffffffffffffffffff168273ffffffffffffffffffffffffffffffffffffffff161415611d45576040517f08c379a000000000000000000000000000000000000000000000000000000000815260040180806020018281038252602a81526020018061540d602a913960400191505060405180910390fd5b611d8c600560008473ffffffffffffffffffffffffffffffffffffffff1673ffffffffffffffffffffffffffffffffffffffff168152602001908152602001600020613169565b9050919050565b611d9b612562565b611e0d576040517f08c379a00000000000000000000000000000000000000000000000000000000081526004018080602001828103825260208152602001807f4f776e61626c653a2063616c6c6572206973206e6f7420746865206f776e657281525060200191505060405180910390fd5b600073ffffffffffffffffffffffffffffffffffffffff16600f60009054906101000a900473ffffffffffffffffffffffffffffffffffffffff1673ffffffffffffffffffffffffffffffffffffffff167f8be0079c531659141344cd1fd0a4f28419497f9722a3daafe3b4186f6b6457e060405160405180910390a36000600f60006101000a81548173ffffffffffffffffffffffffffffffffffffffff021916908373ffffffffffffffffffffffffffffffffffffffff160217905550565b611ed7336118f0565b611f2c576040517f08c379a00000000000000000000000000000000000000000000000000000000081526004018080602001828103825260308152602001806152fc6030913960400191505060405180910390fd5b611f3581613177565b50565b611f41336118f0565b611f96576040517f08c379a00000000000000000000000000000000000000000000000000000000081526004018080602001828103825260308152602001806152fc6030913960400191505060405180910390fd5b600160009054906101000a900460ff1615612019576040517f08c379a00000000000000000000000000000000000000000000000000000000081526004018080602001828103825260108152602001807f5061757361626c653a207061757365640000000000000000000000000000000081525060200191505060405180910390fd5b60018060006101000a81548160ff0219169083151502179055507f62e78cea01bee320cd4e420270b5ea74000d11b0c9f74754ebdbfc544b05a25833604051808273ffffffffffffffffffffffffffffffffffffffff1673ffffffffffffffffffffffffffffffffffffffff16815260200191505060405180910390a1565b60007f9fe701af713820c8db29ef40f4e42f170626962cb1c9443cf9b55b1fa75a9e9d6040518080602001828103825260128152602001807f492068617665206265656e2063616c6c6564000000000000000000000000000081525060200191505060405180910390a16000868686866040516020018085600260200280828437808301925050508460026040028082843780830192505050836002602002808284378083019250505082600260200280828437808301925050509450505050506040516020818303038152906040528051906020012090507f1659ad673497ce57a4db5c1bdea2d6f0470485d867eea6f72de074cd91ce4500816040518082815260200191505060405180910390a1600015156121b682856131d1565b15151461220e576040517f08c379a00000000000000000000000000000000000000000000000000000000081526004018080602001828103825260338152602001806153a26033913960400191505060405180910390fd5b600080905061221b615070565b8281600001818152505084816020019073ffffffffffffffffffffffffffffffffffffffff16908173ffffffffffffffffffffffffffffffffffffffff1681525050601760008673ffffffffffffffffffffffffffffffffffffffff1673ffffffffffffffffffffffffffffffffffffffff16815260200190815260200160002081908060018154018082558091505090600182039060005260206000209060020201600090919290919091506000820151816000015560208201518160010160006101000a81548173ffffffffffffffffffffffffffffffffffffffff021916908373ffffffffffffffffffffffffffffffffffffffff1602179055505050507f1b45dbfed9eed246b93226fc0d3554b49038083c727099f41936fc86daa89e5633604051808273ffffffffffffffffffffffffffffffffffffffff1673ffffffffffffffffffffffffffffffffffffffff16815260200191505060405180910390a160006124a18a6002806020026040519081016040528092919082600260200280828437600081840152601f19601f8201169050808301925050505050508a600280602002604051908101604052809291906000905b82821015612428578382604002016002806020026040519081016040528092919082600260200280828437600081840152601f19601f820116905080830192505050505050815260200190600101906123d4565b505050508a6002806020026040519081016040528092919082600260200280828437600081840152601f19601f8201169050808301925050505050508a6002806020026040519081016040528092919082600260200280828437600081840152601f19601f8201169050808301925050505050506119a4565b9050600115158115151461251d576040517f08c379a000000000000000000000000000000000000000000000000000000000815260040180806020018281038252601a8152602001807f5468697320736f6c7574696f6e206973206e6f742076616c696400000000000081525060200191505060405180910390fd5b612526866132f4565b92508294505050505095945050505050565b6000600f60009054906101000a900473ffffffffffffffffffffffffffffffffffffffff16905090565b6000600f60009054906101000a900473ffffffffffffffffffffffffffffffffffffffff1673ffffffffffffffffffffffffffffffffffffffff163373ffffffffffffffffffffffffffffffffffffffff1614905090565b6060600c8054600181600116156101000203166002900480601f0160208091040260200160405190810160405280929190818152602001828054600181600116156101000203166002900480156126525780601f1061262757610100808354040283529160200191612652565b820191906000526020600020905b81548152906001019060200180831161263557829003601f168201915b5050505050905090565b61266533612874565b6126ba576040517f08c379a00000000000000000000000000000000000000000000000000000000081526004018080602001828103825260308152602001806154606030913960400191505060405180910390fd5b6126c381613365565b50565b6126cf336133bf565b565b3373ffffffffffffffffffffffffffffffffffffffff168273ffffffffffffffffffffffffffffffffffffffff161415612773576040517f08c379a00000000000000000000000000000000000000000000000000000000081526004018080602001828103825260198152602001807f4552433732313a20617070726f766520746f2063616c6c65720000000000000081525060200191505060405180910390fd5b80600660003373ffffffffffffffffffffffffffffffffffffffff1673ffffffffffffffffffffffffffffffffffffffff16815260200190815260200160002060008473ffffffffffffffffffffffffffffffffffffffff1673ffffffffffffffffffffffffffffffffffffffff16815260200190815260200160002060006101000a81548160ff0219169083151502179055508173ffffffffffffffffffffffffffffffffffffffff163373ffffffffffffffffffffffffffffffffffffffff167f17307eab39ab6107e8899845ad3d59bd9653f200f220920489ca2b5937696c3183604051808215151515815260200191505060405180910390a35050565b600061288a82600e612ebf90919063ffffffff16565b9050919050565b60607f9b8632543f9271d60587df495e216b6b2cd0c5c7f6ec5ff48d89f540830e14d66040518080602001828103825260128152602001807f417765736f6d65205469746c652054657374000000000000000000000000000081525060200191505060405180910390a160405180606001604052806025815260200161557660259139905090565b612924848484611586565b61293084848484613419565b612985576040517f08c379a00000000000000000000000000000000000000000000000000000000081526004018080602001828103825260328152602001806152ca6032913960400191505060405180910390fd5b50505050565b606061299682612d14565b6129eb576040517f08c379a000000000000000000000000000000000000000000000000000000000815260040180806020018281038252602f81526020018061559b602f913960400191505060405180910390fd5b600d60008381526020019081526020016000208054600181600116156101000203166002900480601f016020809104026020016040519081016040528092919081815260200182805460018160011615610100020316600290048015612a925780601f10612a6757610100808354040283529160200191612a92565b820191906000526020600020905b815481529060010190602001808311612a7557829003601f168201915b50505050509050919050565b6000612aa8612562565b612b1a576040517f08c379a00000000000000000000000000000000000000000000000000000000081526004018080602001828103825260208152602001807f4f776e61626c653a2063616c6c6572206973206e6f7420746865206f776e657281525060200191505060405180910390fd5b6000809050612b298585612e9e565b612b338484613602565b600190507f6f24cf36bfd89e3dbb90646858861aef2b00e5027c88411a24cafe1a12f6006881604051808215151515815260200191505060405180910390a1809150509392505050565b60607f01a87e7a3d231b634c1b6d4af78b689c56e577b096c765c761a9d79d482cd4276040518080602001828103825260128152602001807f544849532049532041205445535420594f21000000000000000000000000000081525060200191505060405180910390a16060612bf1612891565b90508091505090565b6000600660008473ffffffffffffffffffffffffffffffffffffffff1673ffffffffffffffffffffffffffffffffffffffff16815260200190815260200160002060008373ffffffffffffffffffffffffffffffffffffffff1673ffffffffffffffffffffffffffffffffffffffff16815260200190815260200160002060009054906101000a900460ff16905092915050565b612c96612562565b612d08576040517f08c379a00000000000000000000000000000000000000000000000000000000081526004018080602001828103825260208152602001807f4f776e61626c653a2063616c6c6572206973206e6f7420746865206f776e657281525060200191505060405180910390fd5b612d118161368c565b50565b6000806003600084815260200190815260200160002060009054906101000a900473ffffffffffffffffffffffffffffffffffffffff169050600073ffffffffffffffffffffffffffffffffffffffff168173ffffffffffffffffffffffffffffffffffffffff161415915050919050565b6000612d9182612d14565b612de6576040517f08c379a000000000000000000000000000000000000000000000000000000000815260040180806020018281038252602c815260200180615376602c913960400191505060405180910390fd5b6000612df183611beb565b90508073ffffffffffffffffffffffffffffffffffffffff168473ffffffffffffffffffffffffffffffffffffffff161480612e6057508373ffffffffffffffffffffffffffffffffffffffff16612e4884611305565b73ffffffffffffffffffffffffffffffffffffffff16145b80612e715750612e708185612bfa565b5b91505092915050565b612e858383836137d2565b612e8f8382613a2d565b612e998282613bcb565b505050565b612ea88282613c92565b612eb28282613bcb565b612ebb81613eaa565b5050565b60008073ffffffffffffffffffffffffffffffffffffffff168273ffffffffffffffffffffffffffffffffffffffff161415612f46576040517f08c379a000000000000000000000000000000000000000000000000000000000815260040180806020018281038252602281526020018061552b6022913960400191505060405180910390fd5b8260000160008373ffffffffffffffffffffffffffffffffffffffff1673ffffffffffffffffffffffffffffffffffffffff16815260200190815260200160002060009054906101000a900460ff16905092915050565b6000807f30644e72e131a029b85045b68181585d2833e84879b9709143e1f593f00000019050612fcb6150a3565b612fd3613ef6565b9050806080015151600186510114612fea57600080fd5b612ff26150eb565b6040518060400160405280600081526020016000815250905060008090505b8651811015613088578387828151811061302757fe5b60200260200101511061303957600080fd5b613079826130748560800151600185018151811061305357fe5b60200260200101518a858151811061306757fe5b6020026020010151614344565b6143d8565b91508080600101915050613011565b506130ab81836080015160008151811061309e57fe5b60200260200101516143d8565b90506130f1856000015186602001516130c38461448b565b85604001516130d58a6040015161448b565b87606001516130e7896000015161448b565b8960200151614525565b6131015760019350505050613109565b600093505050505b92915050565b61312381600061468990919063ffffffff16565b8073ffffffffffffffffffffffffffffffffffffffff167fcd265ebaf09df2871cc7bd4133404a235ba12eff2041bb89d9c714a2621c7c7e60405160405180910390a250565b600081600001549050919050565b61318b81600061474690919063ffffffff16565b8073ffffffffffffffffffffffffffffffffffffffff167f6719d08c1888103bea251a4ed56406bd0c3e69723c8a1686e017e7bbe159b6f860405160405180910390a250565b600080601760008473ffffffffffffffffffffffffffffffffffffffff1673ffffffffffffffffffffffffffffffffffffffff16815260200190815260200160002080549050141561322657600090506132ee565b6000809050601760008473ffffffffffffffffffffffffffffffffffffffff1673ffffffffffffffffffffffffffffffffffffffff168152602001908152602001600020805490508110156132ec5783601760008573ffffffffffffffffffffffffffffffffffffffff1673ffffffffffffffffffffffffffffffffffffffff16815260200190815260200160002082815481106132c057fe5b90600052602060002090600202016000015414156132e25760019150506132ee565b60009150506132ee565b505b92915050565b60006133006015614821565b600061330c6015613169565b9050606061331982614837565b9050600080905060606133446040518060600160405280603f815260200161561c603f913984614964565b90506000613353878684612a9e565b90508092508295505050505050919050565b61337981600e61474690919063ffffffff16565b8073ffffffffffffffffffffffffffffffffffffffff167f6ae172837ea30b801fbfcdd4108aa1d5bf8ff775444fd70256b44e6bf3dfc3f660405160405180910390a250565b6133d381600e61468990919063ffffffff16565b8073ffffffffffffffffffffffffffffffffffffffff167fe94479a9f7e1952cc78f2d6baab678adc1b772d936c6583def489e524cb6669260405160405180910390a250565b600061343a8473ffffffffffffffffffffffffffffffffffffffff166149a8565b61344757600190506135fa565b60008473ffffffffffffffffffffffffffffffffffffffff1663150b7a02338887876040518563ffffffff1660e01b8152600401808573ffffffffffffffffffffffffffffffffffffffff1673ffffffffffffffffffffffffffffffffffffffff1681526020018473ffffffffffffffffffffffffffffffffffffffff1673ffffffffffffffffffffffffffffffffffffffff16815260200183815260200180602001828103825283818151815260200191508051906020019080838360005b83811015613522578082015181840152602081019050613507565b50505050905090810190601f16801561354f5780820380516001836020036101000a031916815260200191505b5095505050505050602060405180830381600087803b15801561357157600080fd5b505af1158015613585573d6000803e3d6000fd5b505050506040513d602081101561359b57600080fd5b8101908080519060200190929190505050905063150b7a0260e01b7bffffffffffffffffffffffffffffffffffffffffffffffffffffffff1916817bffffffffffffffffffffffffffffffffffffffffffffffffffffffff1916149150505b949350505050565b61360b82612d14565b613660576040517f08c379a000000000000000000000000000000000000000000000000000000000815260040180806020018281038252602c8152602001806154ff602c913960400191505060405180910390fd5b80600d60008481526020019081526020016000209080519060200190613687929190615105565b505050565b600073ffffffffffffffffffffffffffffffffffffffff168173ffffffffffffffffffffffffffffffffffffffff161415613712576040517f08c379a000000000000000000000000000000000000000000000000000000000815260040180806020018281038252602681526020018061532c6026913960400191505060405180910390fd5b8073ffffffffffffffffffffffffffffffffffffffff16600f60009054906101000a900473ffffffffffffffffffffffffffffffffffffffff1673ffffffffffffffffffffffffffffffffffffffff167f8be0079c531659141344cd1fd0a4f28419497f9722a3daafe3b4186f6b6457e060405160405180910390a380600f60006101000a81548173ffffffffffffffffffffffffffffffffffffffff021916908373ffffffffffffffffffffffffffffffffffffffff16021790555050565b8273ffffffffffffffffffffffffffffffffffffffff166137f282611beb565b73ffffffffffffffffffffffffffffffffffffffff161461385e576040517f08c379a000000000000000000000000000000000000000000000000000000000815260040180806020018281038252602981526020018061554d6029913960400191505060405180910390fd5b600073ffffffffffffffffffffffffffffffffffffffff168273ffffffffffffffffffffffffffffffffffffffff1614156138e4576040517f08c379a00000000000000000000000000000000000000000000000000000000081526004018080602001828103825260248152602001806153526024913960400191505060405180910390fd5b6138ed816149bb565b613934600560008573ffffffffffffffffffffffffffffffffffffffff1673ffffffffffffffffffffffffffffffffffffffff168152602001908152602001600020614a79565b61397b600560008473ffffffffffffffffffffffffffffffffffffffff1673ffffffffffffffffffffffffffffffffffffffff168152602001908152602001600020614821565b816003600083815260200190815260200160002060006101000a81548173ffffffffffffffffffffffffffffffffffffffff021916908373ffffffffffffffffffffffffffffffffffffffff160217905550808273ffffffffffffffffffffffffffffffffffffffff168473ffffffffffffffffffffffffffffffffffffffff167fddf252ad1be2c89b69c2b068fc378daa952ba7f163c4a11628f55a4df523b3ef60405160405180910390a4505050565b6000613a856001600760008673ffffffffffffffffffffffffffffffffffffffff1673ffffffffffffffffffffffffffffffffffffffff16815260200190815260200160002080549050614a9c90919063ffffffff16565b9050600060086000848152602001908152602001600020549050818114613b72576000600760008673ffffffffffffffffffffffffffffffffffffffff1673ffffffffffffffffffffffffffffffffffffffff1681526020019081526020016000208381548110613af257fe5b9060005260206000200154905080600760008773ffffffffffffffffffffffffffffffffffffffff1673ffffffffffffffffffffffffffffffffffffffff1681526020019081526020016000208381548110613b4a57fe5b9060005260206000200181905550816008600083815260200190815260200160002081905550505b600760008573ffffffffffffffffffffffffffffffffffffffff1673ffffffffffffffffffffffffffffffffffffffff168152602001908152602001600020805480919060019003613bc49190615185565b5050505050565b600760008373ffffffffffffffffffffffffffffffffffffffff1673ffffffffffffffffffffffffffffffffffffffff168152602001908152602001600020805490506008600083815260200190815260200160002081905550600760008373ffffffffffffffffffffffffffffffffffffffff1673ffffffffffffffffffffffffffffffffffffffff1681526020019081526020016000208190806001815401808255809150509060018203906000526020600020016000909192909190915055505050565b600073ffffffffffffffffffffffffffffffffffffffff168273ffffffffffffffffffffffffffffffffffffffff161415613d35576040517f08c379a00000000000000000000000000000000000000000000000000000000081526004018080602001828103825260208152602001807f4552433732313a206d696e7420746f20746865207a65726f206164647265737381525060200191505060405180910390fd5b613d3e81612d14565b15613db1576040517f08c379a000000000000000000000000000000000000000000000000000000000815260040180806020018281038252601c8152602001807f4552433732313a20746f6b656e20616c7265616479206d696e7465640000000081525060200191505060405180910390fd5b816003600083815260200190815260200160002060006101000a81548173ffffffffffffffffffffffffffffffffffffffff021916908373ffffffffffffffffffffffffffffffffffffffff160217905550613e4a600560008473ffffffffffffffffffffffffffffffffffffffff1673ffffffffffffffffffffffffffffffffffffffff168152602001908152602001600020614821565b808273ffffffffffffffffffffffffffffffffffffffff16600073ffffffffffffffffffffffffffffffffffffffff167fddf252ad1be2c89b69c2b068fc378daa952ba7f163c4a11628f55a4df523b3ef60405160405180910390a45050565b600980549050600a600083815260200190815260200160002081905550600981908060018154018082558091505090600182039060005260206000200160009091929091909150555050565b613efe6150a3565b60405180604001604052807f0a7247fbc95a55003ef5f027d9d9a8a8f8905fd415108d78881da8000751117a81526020017f2568ce6b03f61e427ded3064934d40380a7fda36d166733abd875526351ee1318152508160000181905250604051806040016040528060405180604001604052807f1947e45d4de0782ccd4d111c6f76cf36cc123cfeed30162c99245f7c0db3e87081526020017f2a78162e847a85f1a13fddc2794fb028c17baf6cb0236aeb1a1502d8d15ba988815250815260200160405180604001604052807f0a9e8e2a3758fa11aafdfbea2f2701edc68975eb7001bc4f2398b82c011ae97281526020017f13b73ada8e5eedeb47536e4bdc9eac06a7c20dbb7e8bd3814ba5b53d23c5a1a98152508152508160200181905250604051806040016040528060405180604001604052807f224e4f2849eaa1277d195896660fd2b99913bba376c2f1e6b22d2cbdcdac8ce981526020017f282141797428d629e0049685f245f3f3e8e74176e9d646b041df83ec0dc79402815250815260200160405180604001604052807f0a64511938d74748a8b96290068abb0ccebbb2a78d802104d57697bc5cc851e081526020017f224adcd18d76be30206f2e4c37bd1d17268cf15d591ba2e54e358d4868656d898152508152508160400181905250604051806040016040528060405180604001604052807f1b30a15cf69460231dda3b8b394e8b774921b21976753c868ff2c6ad43be49a981526020017f1ff2165fa8def3ac7f1ac7d073bcfd2b9f774fc5995c3585ff6edbccb2b6dbbd815250815260200160405180604001604052807f0f8c0bf3f23faa402a4840b83fd251c69c96c7346ceb7a087c281aa4a2b2391b81526020017f22ec5d2cfa161c19e25e677b9dc4c37dee363e6320e1086c601531f3c6a4039d815250815250816060018190525060036040519080825280602002602001820160405280156141e557816020015b6141d26151b1565b8152602001906001900390816141ca5790505b50816080018190525060405180604001604052807f05bca1db84378bd9227f186b29eaacd139bd1b3f06d158bee4f69156d071da6a81526020017f1bf4f47d4173c98dc15dbc177652a63a77a0613275203fad51524febd4ccd0ab815250816080015160008151811061425457fe5b602002602001018190525060405180604001604052807f1676571a3689001528dafe3dd01857af3753484eddf02afa0d9d95e08f172ad381526020017f101326dca086eebad2efa5da7ee8c23b38990265aa3e82870a2cf9c39cff8f2d81525081608001516001815181106142c557fe5b602002602001018190525060405180604001604052807f16c040dddca77bac24423d6ba3c07648d22db7c9f3522a096505247ee4a0186c81526020017f092013931ce9a9ad43228649775494f28c5771f206a9ac027eeff29d18802b3f815250816080015160028151811061433657fe5b602002602001018190525090565b61434c6150eb565b6143546151cb565b83600001518160006003811061436657fe5b60200201818152505083602001518160016003811061438157fe5b602002018181525050828160026003811061439857fe5b6020020181815250506000606083608084600060076107d05a03f1905080600081146143c3576143c5565bfe5b50806143d057600080fd5b505092915050565b6143e06150eb565b6143e86151ed565b8360000151816000600481106143fa57fe5b60200201818152505083602001518160016004811061441557fe5b60200201818152505082600001518160026004811061443057fe5b60200201818152505082602001518160036004811061444b57fe5b602002018181525050600060608360c084600060066107d05a03f19050806000811461447657614478565bfe5b508061448357600080fd5b505092915050565b6144936150eb565b60007f30644e72e131a029b85045b68181585d97816a916871ca8d3c208c16d87cfd479050600083600001511480156144d0575060008360200151145b156144f4576040518060400160405280600081526020016000815250915050614520565b6040518060400160405280846000015181526020018285602001518161451657fe5b0683038152509150505b919050565b60006060600460405190808252806020026020018201604052801561456457816020015b6145516151b1565b8152602001906001900390816145495790505b509050606060046040519080825280602002602001820160405280156145a457816020015b61459161520f565b8152602001906001900390816145895790505b5090508a826000815181106145b557fe5b602002602001018190525088826001815181106145ce57fe5b602002602001018190525086826002815181106145e757fe5b6020026020010181905250848260038151811061460057fe5b6020026020010181905250898160008151811061461957fe5b6020026020010181905250878160018151811061463257fe5b6020026020010181905250858160028151811061464b57fe5b6020026020010181905250838160038151811061466457fe5b60200260200101819052506146798282614b25565b9250505098975050505050505050565b6146938282612ebf565b6146e8576040517f08c379a00000000000000000000000000000000000000000000000000000000081526004018080602001828103825260218152602001806154906021913960400191505060405180910390fd5b60008260000160008373ffffffffffffffffffffffffffffffffffffffff1673ffffffffffffffffffffffffffffffffffffffff16815260200190815260200160002060006101000a81548160ff0219169083151502179055505050565b6147508282612ebf565b156147c3576040517f08c379a000000000000000000000000000000000000000000000000000000000815260040180806020018281038252601f8152602001807f526f6c65733a206163636f756e7420616c72656164792068617320726f6c650081525060200191505060405180910390fd5b60018260000160008373ffffffffffffffffffffffffffffffffffffffff1673ffffffffffffffffffffffffffffffffffffffff16815260200190815260200160002060006101000a81548160ff0219169083151502179055505050565b6001816000016000828254019250508190555050565b6060600082141561487f576040518060400160405280600181526020017f3000000000000000000000000000000000000000000000000000000000000000815250905061495f565b600082905060005b600082146148a9578080600101915050600a82816148a157fe5b049150614887565b6060816040519080825280601f01601f1916602001820160405280156148de5781602001600182028038833980820191505090505b50905060006001830390505b6000861461495757600a86816148fc57fe5b0660300160f81b8282806001900393508151811061491657fe5b60200101907effffffffffffffffffffffffffffffffffffffffffffffffffffffffffffff1916908160001a905350600a868161494f57fe5b0495506148ea565b819450505050505b919050565b60606149a08383604051806020016040528060008152506040518060200160405280600081525060405180602001604052806000815250614d7a565b905092915050565b600080823b905060008111915050919050565b600073ffffffffffffffffffffffffffffffffffffffff166004600083815260200190815260200160002060009054906101000a900473ffffffffffffffffffffffffffffffffffffffff1673ffffffffffffffffffffffffffffffffffffffff1614614a765760006004600083815260200190815260200160002060006101000a81548173ffffffffffffffffffffffffffffffffffffffff021916908373ffffffffffffffffffffffffffffffffffffffff1602179055505b50565b614a9160018260000154614a9c90919063ffffffff16565b816000018190555050565b600082821115614b14576040517f08c379a000000000000000000000000000000000000000000000000000000000815260040180806020018281038252601e8152602001807f536166654d6174683a207375627472616374696f6e206f766572666c6f77000081525060200191505060405180910390fd5b600082840390508091505092915050565b60008151835114614b3557600080fd5b6000835190506000600682029050606081604051908082528060200260200182016040528015614b745781602001602082028038833980820191505090505b50905060008090505b83811015614d1a57868181518110614b9157fe5b602002602001015160000151826000600684020181518110614baf57fe5b602002602001018181525050868181518110614bc757fe5b602002602001015160200151826001600684020181518110614be557fe5b602002602001018181525050858181518110614bfd57fe5b602002602001015160000151600060028110614c1557fe5b6020020151826002600684020181518110614c2c57fe5b602002602001018181525050858181518110614c4457fe5b602002602001015160000151600160028110614c5c57fe5b6020020151826003600684020181518110614c7357fe5b602002602001018181525050858181518110614c8b57fe5b602002602001015160200151600060028110614ca357fe5b6020020151826004600684020181518110614cba57fe5b602002602001018181525050858181518110614cd257fe5b602002602001015160200151600160028110614cea57fe5b6020020151826005600684020181518110614d0157fe5b6020026020010181815250508080600101915050614b7d565b50614d23615235565b60006020826020860260208601600060086107d05a03f190508060008114614d4a57614d4c565bfe5b5080614d5757600080fd5b600082600060018110614d6657fe5b602002015114159550505050505092915050565b6060808690506060869050606086905060608690506060869050606081518351855187518951010101016040519080825280601f01601f191660200182016040528015614dd65781602001600182028038833980820191505090505b509050606081905060008090506000809050600090505b8851811015614e5b57888181518110614e0257fe5b602001015160f81c60f81b838380600101945081518110614e1f57fe5b60200101907effffffffffffffffffffffffffffffffffffffffffffffffffffffffffffff1916908160001a9053508080600101915050614ded565b600090505b8751811015614ece57878181518110614e7557fe5b602001015160f81c60f81b838380600101945081518110614e9257fe5b60200101907effffffffffffffffffffffffffffffffffffffffffffffffffffffffffffff1916908160001a9053508080600101915050614e60565b600090505b8651811015614f4157868181518110614ee857fe5b602001015160f81c60f81b838380600101945081518110614f0557fe5b60200101907effffffffffffffffffffffffffffffffffffffffffffffffffffffffffffff1916908160001a9053508080600101915050614ed3565b600090505b8551811015614fb457858181518110614f5b57fe5b602001015160f81c60f81b838380600101945081518110614f7857fe5b60200101907effffffffffffffffffffffffffffffffffffffffffffffffffffffffffffff1916908160001a9053508080600101915050614f46565b600090505b845181101561502757848181518110614fce57fe5b602001015160f81c60f81b838380600101945081518110614feb57fe5b60200101907effffffffffffffffffffffffffffffffffffffffffffffffffffffffffffff1916908160001a9053508080600101915050614fb9565b82995050505050505050505095945050505050565b6040518061010001604052806150506151b1565b815260200161505d61520f565b815260200161506a6151b1565b81525090565b604051806040016040528060008019168152602001600073ffffffffffffffffffffffffffffffffffffffff1681525090565b604051806101e001604052806150b76151b1565b81526020016150c461520f565b81526020016150d161520f565b81526020016150de61520f565b8152602001606081525090565b604051806040016040528060008152602001600081525090565b828054600181600116156101000203166002900490600052602060002090601f016020900481019282601f1061514657805160ff1916838001178555615174565b82800160010185558215615174579182015b82811115615173578251825591602001919060010190615158565b5b5090506151819190615257565b5090565b8154818355818111156151ac578183600052602060002091820191016151ab9190615257565b5b505050565b604051806040016040528060008152602001600081525090565b6040518060600160405280600390602082028038833980820191505090505090565b6040518060800160405280600490602082028038833980820191505090505090565b604051806080016040528061522261527c565b815260200161522f61527c565b81525090565b6040518060200160405280600190602082028038833980820191505090505090565b61527991905b8082111561527557600081600090555060010161525d565b5090565b90565b604051806040016040528060029060208202803883398082019150509050509056fe455243373231456e756d657261626c653a206f776e657220696e646578206f7574206f6620626f756e64734552433732313a207472616e7366657220746f206e6f6e20455243373231526563656976657220696d706c656d656e746572506175736572526f6c653a2063616c6c657220646f6573206e6f742068617665207468652050617573657220726f6c654f776e61626c653a206e6577206f776e657220697320746865207a65726f20616464726573734552433732313a207472616e7366657220746f20746865207a65726f20616464726573734552433732313a206f70657261746f7220717565727920666f72206e6f6e6578697374656e7420746f6b656e536f6c7574696f6e2068617320616c7265616479206265656e207375626d6974746564206279207468697320616464726573734552433732313a20617070726f76652063616c6c6572206973206e6f74206f776e6572206e6f7220617070726f76656420666f7220616c6c4552433732313a2062616c616e636520717565727920666f7220746865207a65726f20616464726573734552433732313a206f776e657220717565727920666f72206e6f6e6578697374656e7420746f6b656e4d696e746572526f6c653a2063616c6c657220646f6573206e6f74206861766520746865204d696e74657220726f6c65526f6c65733a206163636f756e7420646f6573206e6f74206861766520726f6c655472616e73616374696f6e207375636365737366756c6c792076657269666965642e4552433732313a20617070726f76656420717565727920666f72206e6f6e6578697374656e7420746f6b656e4552433732314d657461646174613a2055524920736574206f66206e6f6e6578697374656e7420746f6b656e526f6c65733a206163636f756e7420697320746865207a65726f20616464726573734552433732313a207472616e73666572206f6620746f6b656e2074686174206973206e6f74206f776e417765736f6d655469746c6520546573742046756e6374696f6e207761732043616c6c65644552433732314d657461646174613a2055524920717565727920666f72206e6f6e6578697374656e7420746f6b656e4552433732313a20617070726f76616c20746f2063757272656e74206f776e65724552433732313a207472616e736665722063616c6c6572206973206e6f74206f776e6572206e6f7220617070726f76656468747470733a2f2f73332d75732d776573742d322e616d617a6f6e6177732e636f6d2f756461636974792d626c6f636b636861696e2f63617073746f6e652f455243373231456e756d657261626c653a20676c6f62616c20696e646578206f7574206f6620626f756e6473a165627a7a72305820497237042dc82ae4ae00cbb790972c0b7debd2a22fae81e745d9484e229ab1890029526f6c65733a206163636f756e7420697320746865207a65726f2061646472657373436f6e7374727563746f7220666f7220536f6c6e537175617265566572696669657220697320576f726b696e67436f6e7374727563746f7220666f7220417765736f6d655469746c6520776f726b696e67",
  "source": "pragma solidity >=0.4.21 <0.6.0;\n\n// TODO: define a contract call to the zokrates generated solidity contract <Verifier> or <renamedVerifier>\nimport \"./Verifier.sol\";\nimport \"./AwesomeTitle.sol\";\nimport \"@openzeppelin/contracts/drafts/Counters.sol\";\n\n\n\n// DONE define another contract named SolnSquareVerifier that inherits from your ERC721Mintable class\ncontract SolnSquareVerifier is AwesomeTitle, Verifier {\n    using Counters for Counters.Counter;\n    Counters.Counter private _tokenIds;\n    string internal constant _baseTokenURI = \"https://s3-us-west-2.amazonaws.com/udacity-blockchain/capstone/\";\n\n    // DONE: define a solutions struct that can hold an index & an address\n    struct Solution {\n        bytes32 solutionHash;\n        address someAddress;\n    }\n\n    // DONE: define an array of the above struct\n    Solution[]  solutions;\n\n    // DONE: define a mapping to store unique solutions submitted\n    mapping(address => Solution[]) submittedSolutions;\n\n    // DONE: Create an event to emit when a solution is added\n    event SolutionSubmitted(address submittedBy);\n\n    event HashCreated(bytes32 theHash);\n    event AddSolutionCalled(string theString);\n    event TestingYo(string aString);\n\n    constructor() AwesomeTitle() public {\n        emit TestingYo(\"Constructor for SolnSquareVerifier is Working\");\n  }\n\n    function testFunction() external\n    returns(string memory)\n    {\n        emit TestingYo(\"THIS IS A TEST YO!\");\n        string memory deepMessage = awesomeTitleTest();\n        return(deepMessage);\n    }\n\n    function solutionExists(bytes32 theHash, address theAddress)\n    internal\n    returns (bool)\n    {\n        if (submittedSolutions[theAddress].length == 0) {\n            return false;\n        } else { // address has submitted solutions, need to iterate over them.\n            for(uint i = 0; i < submittedSolutions[theAddress].length; i++) {\n                if(submittedSolutions[theAddress][i].solutionHash == theHash){\n                    return true; // solution has already been submitted by this address.\n                }\n                return false; // this is a new solution.\n            }\n        }\n\n    }\n\n    // DONE Create a function to add the solutions to the array and emit the event\n    function addSolution(uint[2] calldata pa, uint[2][2] calldata pb, uint[2] calldata pc, uint[2] calldata i, address to)\n    external\n    returns (bool)\n    {\n        emit AddSolutionCalled(\"I have been called\");\n        bytes32 newHash = keccak256(abi.encodePacked(pa, pb, pc, i));\n        emit HashCreated(newHash);\n        require(solutionExists(newHash, to) == false, \"Solution has already been submitted by this address\");\n        bool isMinted = false;\n\n\n        // Solution doesn't already exist, add to solutions for this address\n        Solution memory newSolution;\n        newSolution.solutionHash = newHash;\n        newSolution.someAddress = to;\n        submittedSolutions[to].push(newSolution);\n        emit SolutionSubmitted(msg.sender);\n\n        bool solutionIsValid = verifyTx(pa,pb,pc,i);\n        require(solutionIsValid == true, \"This solution is not valid\");\n\n        isMinted = newTitle(to);\n        return isMinted;\n    }\n\n    // DONE: Create a function to mint new NFT only after the solution has been verified\n    //  - make sure the solution is unique (has not been used before)\n    //  - make sure you handle metadata as well as tokenSuplly\n\n    // Creates a new title for an owner of a property.\n    function newTitle(address to)\n    internal\n    returns(bool)\n    {\n        _tokenIds.increment();\n        uint256 newItemId = _tokenIds.current();\n        string memory strTokenId = uint2str(newItemId);\n        bool success = false;\n        string memory tokenURI;\n        tokenURI = strConcat(_baseTokenURI, strTokenId);\n\n        bool isMinted = mint(to, newItemId, tokenURI);\n\n        success = isMinted;\n\n        return success;\n    }\n}\n",
  "sourcePath": "/Users/joshcork/Source/github/joshcork/Blockchain-Capstone/eth-contracts/contracts/SolnSquareVerifier.sol",
  "compiler": {
    "name": "solc",
    "version": "0.5.8+commit.23d335f2.Emscripten.clang"
  },
  "schemaVersion": "3.0.10",
  "updatedAt": "2019-10-13T03:09:10.224Z",
  "devdoc": {
    "methods": {
      "approve(address,uint256)": {
        "details": "Approves another address to transfer the given token ID The zero address indicates there is no approved address. There can only be one approved address per token at a given time. Can only be called by the token owner or an approved operator.",
        "params": {
          "to": "address to be approved for the given token ID",
          "tokenId": "uint256 ID of the token to be approved"
        }
      },
      "balanceOf(address)": {
        "details": "Gets the balance of the specified address.",
        "params": {
          "owner": "address to query the balance of"
        },
        "return": "uint256 representing the amount owned by the passed address"
      },
      "getApproved(uint256)": {
        "details": "Gets the approved address for a token ID, or zero if no address set Reverts if the token ID does not exist.",
        "params": {
          "tokenId": "uint256 ID of the token to query the approval of"
        },
        "return": "address currently approved for the given token ID"
      },
      "isApprovedForAll(address,address)": {
        "details": "Tells whether an operator is approved by a given owner.",
        "params": {
          "operator": "operator address which you want to query the approval of",
          "owner": "owner address which you want to query the approval of"
        },
        "return": "bool whether the given operator is approved by the given owner"
      },
      "isOwner()": {
        "details": "Returns true if the caller is the current owner."
      },
      "mint(address,uint256)": {
        "details": "Function to mint tokens.",
        "params": {
          "to": "The address that will receive the minted tokens.",
          "tokenId": "The token id to mint."
        },
        "return": "A boolean that indicates if the operation was successful."
      },
      "name()": {
        "details": "Gets the token name.",
        "return": "string representing the token name"
      },
      "owner()": {
        "details": "Returns the address of the current owner."
      },
      "ownerOf(uint256)": {
        "details": "Gets the owner of the specified token ID.",
        "params": {
          "tokenId": "uint256 ID of the token to query the owner of"
        },
        "return": "address currently marked as the owner of the given token ID"
      },
      "pause()": {
        "details": "Called by a pauser to pause, triggers stopped state."
      },
      "paused()": {
        "details": "Returns true if the contract is paused, and false otherwise."
      },
      "renounceOwnership()": {
        "details": "Leaves the contract without owner. It will not be possible to call `onlyOwner` functions anymore. Can only be called by the current owner.     * > Note: Renouncing ownership will leave the contract without an owner, thereby removing any functionality that is only available to the owner."
      },
      "safeTransferFrom(address,address,uint256)": {
        "details": "Safely transfers the ownership of a given token ID to another address If the target address is a contract, it must implement `onERC721Received`, which is called upon a safe transfer, and return the magic value `bytes4(keccak256(\"onERC721Received(address,address,uint256,bytes)\"))`; otherwise, the transfer is reverted. Requires the msg.sender to be the owner, approved, or operator",
        "params": {
          "from": "current owner of the token",
          "to": "address to receive the ownership of the given token ID",
          "tokenId": "uint256 ID of the token to be transferred"
        }
      },
      "safeTransferFrom(address,address,uint256,bytes)": {
        "details": "Safely transfers the ownership of a given token ID to another address If the target address is a contract, it must implement `onERC721Received`, which is called upon a safe transfer, and return the magic value `bytes4(keccak256(\"onERC721Received(address,address,uint256,bytes)\"))`; otherwise, the transfer is reverted. Requires the msg.sender to be the owner, approved, or operator",
        "params": {
          "_data": "bytes data to send along with a safe transfer check",
          "from": "current owner of the token",
          "to": "address to receive the ownership of the given token ID",
          "tokenId": "uint256 ID of the token to be transferred"
        }
      },
      "setApprovalForAll(address,bool)": {
        "details": "Sets or unsets the approval of a given operator An operator is allowed to transfer all tokens of the sender on their behalf.",
        "params": {
          "approved": "representing the status of the approval to be set",
          "to": "operator address to set the approval"
        }
      },
      "supportsInterface(bytes4)": {
        "details": "See `IERC165.supportsInterface`.     * Time complexity O(1), guaranteed to always use less than 30 000 gas."
      },
      "symbol()": {
        "details": "Gets the token symbol.",
        "return": "string representing the token symbol"
      },
      "tokenByIndex(uint256)": {
        "details": "Gets the token ID at a given index of all the tokens in this contract Reverts if the index is greater or equal to the total number of tokens.",
        "params": {
          "index": "uint256 representing the index to be accessed of the tokens list"
        },
        "return": "uint256 token ID at the given index of the tokens list"
      },
      "tokenOfOwnerByIndex(address,uint256)": {
        "details": "Gets the token ID at a given index of the tokens list of the requested owner.",
        "params": {
          "index": "uint256 representing the index to be accessed of the requested tokens list",
          "owner": "address owning the tokens list to be accessed"
        },
        "return": "uint256 token ID at the given index of the tokens list owned by the requested address"
      },
      "tokenURI(uint256)": {
        "details": "Returns an URI for a given token ID. Throws if the token ID does not exist. May return an empty string.",
        "params": {
          "tokenId": "uint256 ID of the token to query"
        }
      },
      "totalSupply()": {
        "details": "Gets the total amount of tokens stored by the contract.",
        "return": "uint256 representing the total amount of tokens"
      },
      "transferFrom(address,address,uint256)": {
        "details": "Transfers the ownership of a given token ID to another address. Usage of this method is discouraged, use `safeTransferFrom` whenever possible. Requires the msg.sender to be the owner, approved, or operator.",
        "params": {
          "from": "current owner of the token",
          "to": "address to receive the ownership of the given token ID",
          "tokenId": "uint256 ID of the token to be transferred"
        }
      },
      "transferOwnership(address)": {
        "details": "Transfers ownership of the contract to a new account (`newOwner`). Can only be called by the current owner."
      },
      "unpause()": {
        "details": "Called by a pauser to unpause, returns to normal state."
      }
    }
  },
  "userdoc": {
    "methods": {}
  }
}